S01B00004D6963726F776176654F76656E53797374656D2E737265633F
S11300000C942A000C9447000C9447000C9447006D
S11300100C94D3020C94AA020C9447000C94EC00A8
S11300200C9447000C9447000C9481020C945802E1
S11300300C9447000C94FC020C9425030C94470088
S11300400C942F020C9447000C9447000C94470026
S11300500C94470011241FBECFE5D8E0DEBFCDBF0E
S113006010E0A0E6B0E0E2EAF6E002C005900D92EE
S1130070A036B107D9F720E0A0E6B0E001C01D9298
S1130080A13AB207E1F70E944E030C944F030C947B
S11300900000CF93DF939C01FB01DC011196CD910D
S11300A0DC911297D383C2838C819D819583848351
S11300B08C819D81DC0113967C936E9312977D83D2
S11300C06C8331872087F90180818F5F8083DF9182
S11300D0CF910895CF93DF93FC01A085B185C281B0
S11300E0D381848195819D838C83C481D5818281D0
S11300F093819B838A8311968D919C911297E81723
S1130100F90731F48481958112969C938E9311970B
S1130110118610868C9181508C93DF91CF91089534
S11301200F920FB6F8940F921F9211242F923F92C0
S11301304F925F926F927F928F929F92AF92BF92F3
S1130140CF92DF92EF92FF920F931F932F933F93DF
S11301504F935F936F937F938F939F93AF93BF93CB
S1130160CF93DF93EF93FF93A0919100B09192000E
S11301700DB60D920EB60D920E940E0181110E94D1
S1130180C901A0919100B0919200CD91CDBFDD91B4
S1130190DEBFFF91EF91DF91CF91BF91AF919F911E
S11301A08F917F916F915F914F913F912F911F910B
S11301B00F91FF90EF90DF90CF90BF90AF909F9002
S11301C08F907F906F905F904F903F902F901F90F3
S11301D00F900FBE0F9008950E9490001895E09123
S11301E06B00F0916C008081811107C08FEF9FEF4D
S11301F090936200809361000895E0916B00F09108
S11302006C000580F681E02D0680F781E02D828167
S1130210938190936200809361000895CF92DF925E
S1130220EF92FF920F931F93CF93DF93809160001F
S1130230811199C0E0906700F09068008FEFE81A90
S1130240F80AF0926800E0926700E114F104B9F44E
S113025080916B0090916C002091690030916A004C
S113026030936C0020936B0090936A008093690034
S1130270809163008F5F809363000E94EF00809100
S1130280610090916200E816F90610F4D12C53C075
S1130290D12CCC24C394E0916B00F0916C0080814C
S11302A0811107C08FEF9FEF9093620080936100EC
S11302B042C0E0916B00F0916C000580F681E02D66
S11302C0C681D7818A819B81E816F90628F4909328
S11302D06200809361002FC08E010E5F1F4FC80122
S11302E00E946A008C899D89892B21F0CE010C968D
S11302F00E946A008E8990916600981710F480938A
S1130300660090E09C01220F331F220F331F220F3F
S1130310331F820F931FB80183599F4F0E944900D6
S1130320E0919100F09192009E898689981708F4D3
S1130330B2CFDC2CB0CFE0919100F091920086898D
S113034090E0FC01EE0FFF1FEE0FFF1FEE0FFF1FEB
S11303508E0F9F1FFC01E359FF4F8081823048F0CC
S1130360DD24D39406C0809165008F5F809365007F
S1130370D12C80916400882311F0DD24D3948D2D39
S1130380DF91CF911F910F91FF90EF90DF90CF906D
S1130390089580916000882321F081E080936400B7
S11303A008951092640020916600822F90E0FC0171
S11303B0EE0FFF1FEE0FFF1FEE0FFF1FE80FF91FD9
S11303C0E359FF4F3081311111C02150822F90E049
S11303D0FC01EE0FFF1FEE0FFF1FEE0FFF1FE80FD4
S11303E0F91FE359FF4F3081332379F3AC01440FF4
S11303F0551F440F551F440F551F480F591FDA014D
S1130400A359BF4F1196ED91FC9112970280F3818D
S1130410E02D1296FC93EE93119740595F4FE41729
S1130420F50729F442815381FD0152834183FC0184
S1130430EE0FFF1FEE0FFF1FEE0FFF1F8E0F9F1F0C
S1130440FC01E359FF4F0180F281E02D8681978101
S113045090939200809391002093660008951F92D8
S11304600F920FB60F9211242F933F934F935F93E4
S11304706F937F938F939F93AF93BF93EF93FF9368
S1130480E0919300F0919400309709F00995FF9161
S1130490EF91BF91AF919F918F917F916F915F91F8
S11304A04F913F912F910F900FBE0F901F90189571
S11304B01F920F920FB60F9211242F933F934F93D5
S11304C05F936F937F938F939F93AF93BF93EF93B8
S11304D0FF93E0919B00F0919C00309709F00995FF
S11304E0FF91EF91BF91AF919F918F917F916F9108
S11304F05F914F913F912F910F900FBE0F901F90DE
S113050018951F920F920FB60F9211242F933F93B9
S11305104F935F936F937F938F939F93AF93BF9307
S1130520EF93FF93E0919900F0919A00309709F0CE
S11305300995FF91EF91BF91AF919F918F917F9119
S11305406F915F914F913F912F910F900FBE0F903C
S11305501F9018951F920F920FB60F9211242F938C
S11305603F934F935F936F937F938F939F93AF9337
S1130570BF93EF93FF93E0919700F0919800309729
S113058009F00995FF91EF91BF91AF919F918F91E0
S11305907F916F915F914F913F912F910F900FBE7B
S11305A00F901F9018951F920F920FB60F9211245F
S11305B02F933F934F935F936F937F938F939F9367
S11305C0AF93BF93EF93FF93E0919500F091960062
S11305D0309709F00995FF91EF91BF91AF919F91E9
S11305E08F917F916F915F914F913F912F910F90D8
S11305F00FBE0F901F9018951F920F920FB60F9277
S113060011242F933F934F935F936F937F938F9313
S11306109F93AF93BF93EF93FF93E0919D00F0916D
S11306209E00309709F00995FF91EF91BF91AF912A
S11306309F918F917F916F915F914F913F912F91F6
S11306400F900FBE0F901F9018951F920F920FB628
S11306500F9211242F933F934F935F936F937F9344
S11306608F939F93AF93BF93EF93FF93E0919F007A
S1130670F091A000309709F00995FF91EF91BF9197
S1130680AF919F918F917F916F915F914F913F9126
S11306902F910F900FBE0F901F901895FFCFF894D5
S10506A0FFCF86
S9030000FC
